:020BA7008F3D80
:100BA900121F2BE53D606CC3EF9425EE94034006BC
:100BB900753E07020C81C3EF94D3EE94024006758B
:100BC9003E06020C81C3EF94B2EE94024006753ED4
:100BD90005020C81C3EF9492EE94024006753E041F
:100BE900020C81C3EF9471EE94024006753E030234
:100BF9000C81C3EF9450EE94024005753E02807853
:100C0900C3EF942FEE94024005753E01806AE4F526
:100C19003E8065C3EF9425EE94034005753E078039
:100C290057C3EF94D3EE94024005753E068049C33D
:100C3900EF94B2EE94024005753E05803BC3EF94F4
:100C490092EE94024005753E04802DC3EF9471EE37
:100C590094024005753E03801FC3EF9450EE940241
:100C69004005753E028011C3EF942FEE94024005B2
:0A0C7900753E018003E4F53EAF3E36
:010C8300224E
:100D6100C3E55694C8748094805003020E35E4F5AF
:100D7100569000B5E014601514605124026003021E
:100D81000E35E49000B7F09000B504F022E4FF12B4
:100D91000BA78F3B9000B6E0653B6007E53BF0E4B5
:100DA100A3F0229000B7E004F0E0C39405748094AE
:100DB100805003020E359000B6E53BF0E0FD7C006B
:100DC1007F08121C089000B57402F022121E9E8F3B
:100DD1003C120BA78F3BE53C602E9000B6E0FFE58F
:100DE1003BD39F401DA3E004F0E0D39405748094AD
:100DF1008040419000B6E53BF0FD7C007F08121C6D
:100E01000822E49000B7F0229000B6E0FFE53BC372
:100E11009F501CA3E004F0E094647480948040141B
:100E21009000B6E53BF0FD7C007F08121C0822E42F
:040E31009000B7F086
:010E3500229A
:0A1EFB00E49000B7F09000B5F0226B
:101BD8000101010204081020010101030509112176
:101BE80003030303070B132307070707070F172729
:101BF8000F0F0F0F0F0F1F2F1F1F1F1F1F1F1F3F1D
:0A1F05009000AD740FF04354012268
:101E5600EFF87401088002C333D8FC9000ADF0435C
:031E660054012202
:0F1E8F009000AD74FFF0A3F043540143540222BE
:091F1900E49000ADF043540122F4
:1016AB00EF14B4070050599016C075F003A4C5830E
:1016BB0025F0C583730216D50216DD0216E5021658
:1016CB00ED0216F50216FD0217059000AE743EF002
:1016DB00802E9000AE7401F080269000AE7403F063
:1016EB00801E9000AE7407F080169000AE740FF061
:1016FB00800E9000AE741FF080069000AE743FF029
:04170B00435402221F
:10156800EFB408005067901575F828287302158D98
:1015780002158D0215980215A30215AE0215B902BF
:1015880015C40215CFED901BD8939000AEF0803DA6
:10159800ED901BE0939000AEF08032ED901BE89345
:1015A8009000AEF08027ED901BF0939000AEF08095
:1015B8001CED901BF8939000AEF08011ED901C008C
:1015C800939000AEF080069000AE743FF043540252
:0115D80022F0
:091F2200E49000AEF043540222E9
:071F3B00EFF5CAEEF5CB2221
:071F4200EFF5CCEEF5CD2216
:10196000EF14601A24FE60251460222404702B7F7B
:10197000A07E0F121F42E4FFFE121F3B801C7F80DF
:101980007E3E121F42E4FFFE121F3B800DE4FFFE6D
:10199000121F427F1E7E4E121F3BE49000AFF022CA
:101DC8009000ABE4F0A374C8F09000AA7401F0E4AA
:0A1DD800FFFE121F42E4121F3B221F
:101C37009000ADE0FF30E004C2818002D281EF3036
:101C4700E104C2988002D298EF30E204C28B80028E
:0C1C5700D28BEF30E303C28A22D28A2233
:1019A0009000AEE0FF30E004C2918002D291EF30AF
:1019B000E104C2908002D290EF30E204C28580023E
:1019C000D285EF30E304C2848002D284EF30E40495
:1019D000C2998002D299EF30E503C28322D28322DA
:10187F009000AAE060219000ACE02464F09000ABEF
:10188F00E03400F0C3A3E094209000ABE0944E400E
:10189F0031E49000AAF022C39000ACE0942C9000A9
:1018AF00ABE09401400DA3E0249CF09000ABE0343A
:1018BF00FFF0229000ABE4F0A374C8F09000AA747C
:0318CF0001F02203
:10164500C3E555940A74809480405AE4F55590009A
:10165500AFE06401703412187F9000B0E0C39406C7
:10166500748094804013E4FFFE121F3B9000ABE0B2
:10167500FEA3E0FF121F4280119000ABE0FEA3E045
:10168500FF121F3BE4FFFE121F42E5546017540191
:1016950064017003121C37E554540264027003128E
:0616A50019A0E4F5542237
:101D8C00E4FFFE121F42E4121F3BE49000ADF0A3EF
:0F1D9C00F0121C371219A0E49000AFF0F5552299
:061F5E009000B0EFF0223C
:061F64009000AFEFF02237
:101A9900C3EF94F0EE940140047D048029C3EF94D0
:101AA90074EE940140047D03801CC3EF94F8EE9416
:101AB9000040047D02800FC3EF9466EE9400400459
:081AC9007D018002E4FDEDFF48
:011AD10022F2
:10182800121F33121A999000A5E06F6044A3E004D8
:10183800F0E0C3940474809480403BE4F09000A5E9
:10184800E0FEEF9E400EEE9404748094805015E004
:1018580004F080109000A5E0D39400748094804038
:1018680003E014F09000A5E0FD7C007F04121C0842
:0618780022E49000A6F03E
:01187E002247
:10022E00C3E55394327480948050030203E8E4F5DE
:10023E005390009FE024FE70030202F51470030237
:10024E000393240260030203DF9000A9E004F0E0B0
:10025E00D3941474809480403CE4F085513B8552D5
:10026E003C53A87FF551F55243A880E53C9402E536
:10027E003B9400501B9000A8E004F0E0C39403747C
:10028E008094804010E4F0FDFC7F07121C0880056E
:10029E00E49000A8F09000A2E0FEA3E0FFC390005F
:1002AE00A1E09F9000A0E09E50149000A4E0FF906B
:1002BE0000A1E02FF09000A0E03400F0801A900032
:1002CE00A27401F0A374F2F09000A07403F0A37472
:1002DE002BF090009F7402F09000A0E0FEA3E0F5DA
:1002EE00BEEEF5BF0203DF9000A9E004F0E0D39468
:1002FE001474809480403CE4F085513B85523C530D
:10030E00A87FF551F55243A880E53C9402E53B9455
:10031E0000501B9000A8E004F0E0C3940374809496
:10032E00804010E4F0FDFC7F07121C088005E4906D
:10033E0000A8F09000A2E0FEA3E0FF9000A0E0FC79
:10034E00A3E0FDD39FEC9E40149000A4E0FFED9F30
:10035E00FEEC94009000A0F0A3CEF0801A9000A2C4
:10036E007403F0A3742BF09000A07401F0A374F248
:10037E00F090009F7401F09000A0E0FEA3E0F5BEA7
:10038E00EEF5BF804C9000A9E004F0E0D394147415
:10039E00809480403CE4F085513B85523C53A87FCD
:1003AE00F551F55243A880E53C9402E53B9400508C
:1003BE001B9000A8E004F0E0C39403748094804086
:1003CE0010E4F0FDFC7F07121C088005E49000A8E5
:0A03DE00F090009FE0600312182861
:0103E80022F2
:100EF600EF14602F14604E14606D24036003020F1C
:100F0600919000A27401F0A374F2F09000A0740115
:100F1600F0A374F2F09000A77485F090009F74031C
:100F2600F080689000A27402F0A3748FF09000A085
:100F36007402F0A3748FF09000A774AFF090009F36
:100F46007403F080469000A27403F0A3742BF09013
:100F560000A07403F0A3742BF09000A774D9F0904E
:100F6600009F7403F080249000A07401F0A374F233
:100F7600F0A37403F0A3742BF09000A774D9F0903B
:100F8600009F7401F09000A47405F09000A0E0FEAC
:100F9600A3E0F5BEEEF5BF43BB8053A87FE4F55151
:0E0FA600F55243A8809000A9F09000A8F02218
:101D4A00E4F5BEF5BF53BB7F9000A2F0A3F090006C
:101D5A00A0F0A3F09000A5F09000A7F090009FF0EB
:011D6A002256
:100E3600EF14603814605D147003020EC224036060
:100E460003020EE675BEF275BF019000A27401F0B2
:100E5600A374F2F09000A07401F0A374F2F0900075
:100E6600A77485F090009F7403F0807475BE8F752B
:100E7600BF029000A27402F0A3748FF09000A074D9
:100E860002F0A3748FF09000A774AFF090009F74E7
:100E960003F0804C75BE2B75BF039000A27403F05F
:100EA600A3742BF09000A07403F0A3742BF09000B1
:100EB600A774D9F090009F7403F080249000A0746A
:100EC60003F0A3742BF0A37401F0A374F2F0900066
:100ED600A77485F09000A47405F090009F7402F04A
:100EE60053A87FE4F551F55243A8809000A9F0225B
:101A5F00D3EF945AEE940A40047E0A7F5A7C007D9D
:101A6F000A1200E07805EFCEC313CE13D8F9FF901A
:101A7F0000A0EEF0A3EFF0A3EEF0A3EFF09000A024
:0A1A8F00E0FEA3E0F5BEEEF5BF2275
:021B7400EFFB85
:101B76007E00C39401748094804024D3EF9405744E
:101B8600809480501AEB7C007D141200E08E3B8F0F
:0F1B96003CEBFD7E017F391200F29000A4EFF0CE
:011BA500221D
:1017CE0053A87F12191B121F50121F49121EEF121F
:1017DE00004E121EC8121E2D121DAB121E69121EB5
:1017EE00E2121D8C121EAD121EFB121E7C121F6AFF
:1017FE00121D2812005643A880120C841203E912FF
:10180E0015D9120AC812164512022E120806120D0A
:0A181E006112140912138D80E022FC
:03005B00021EBBC7
:0D1EBB00C0E00552E55270020551D0E03242
:03006300021D6B10
:101D6B00C0E0054305570553055605580555054E67
:101D7B00E54E7002054D0550E5507002054FD0E061
:011D8B003225
:071F4900759C80759D0722C5
:0C1EEF00E4F5A5F5A475A60143A9202286
:04004E0075EB01222B
:0D1EC80075990B759B2643AA014399802252
:101E2D0075BB2043BB3075BAC0E4F5BFF5BE75BDBB
:051E3D000375BCE72263
:101DAB00E4F5CBF5CAF5CDF5CCF5CFF5CE75C5C6BB
:0D1DBB0075C74E75C61F75C33D43C380221A
:101E690075DA0275D90643DAACE4F5DB75E381432B
:031E7900A9082293
:0A1F0F00758D9590505E7496F022D7
:071F500075C828E4F58A22A0
:10191B0075803A75A1FFE4F5AC75913A75880F7532
:10192B00B1CC75AD0275920C75950375900375B9B5
:10193B00EB75AE1075938375960275980375C1F7A9
:10194B00F5AFF59475F10575F315F5F2F5F575F43D
:05195B006075F60C228E
:03000000021DE2FC
:101DE20078FFE4F6D8FD9000007F007E01E4F0A3C6
:0A1DF200DFFCDEFA7581600217CEF7
:101E4200436F6E6E6563743A3100436F6E6E656305
:041E5200743A3000AE
:101E7C00E490003CF0A3F090003BF0900058F0127E
:031E8C001DFC2218
:071F57009000587401F02214
:101BA600E4FF90003DE0FE90003CE0FD6E60227494
:101BB6003E2DF582E43400F583E01200AC90003C43
:101BC600E004F0E0C39410748094804002E4F07F57
:011BD600010D
:011BD70022EB
:03004B000219E0B7
:0B19E000C0E0C083C082C0D0EFC0E0B8
:1019EB00AFE1EF30E523AFE590003DE0243EF5821B
:1019FB00E43400F583EFF090003DE004F0E0C39495
:091A0B0010748094804002E4F0A4
:0C1A1400D0E0FFD0D0D082D083D0E032F0
:03005300020003A5
:10000300C0E0C083C082C0D0E5E154806480702E1C
:10001300900018E0D3940074809480401C900017E3
:10002300E02419F582E43400F583E0F5E590001748
:10003300E004F0A3E014F08005900015E4F0D0D0C4
:07004300D082D083D0E0322F
:1015D900900015E024FE602E047060E4900017F07E
:1015E900E5E1548064807053E02419F582E4340005
:1015F900F583E0F5E5900017E004F0A3E014F0901E
:1016090000157402F022E5E154806480702D900089
:1016190018E0D3940074809480401B900017E02454
:1016290019F582E43400F583E0F5E5900017E0044C
:0C163900F0A3E014F022E4900015F02271
:101E1600900019742BF0A3F0A3F09000187403F04F
:071E26009000157401F02289
:10170F009000197441F0A37454F0A3742BF0A374D8
:10171F0073F0A37465F0A37474F0A3744EF0A37404
:10172F0061F0A3746DF0A37465F0A3743DF0A3741E
:10173F0046F0A3746CF0A3746FF0A37477F0A374E6
:10174F004DF0A3746FF0A37476F0A37465F0A374D7
:10175F000DF0A3740AF09000187415F09000157432
:03176F0001F02264
:101B41009000197441F0A37454F0A3742BF0A374A2
:101B510065F0A37478F0A37469F0A37474F0A374AE
:101B61000DF0A37464F09000187409F090001574DE
:031B710001F0225E
:101CB900900019749AF0A37401F0A3EFF090001A40
:101CC900E0249A2F90001CF09000187404F0900002
:051CD900157401F0226A
:101C6300900019749AF0A37405F0A37485F0A3EFA0
:101C7300F0A3EDF0A3EBF0EF24242D2BA3F09000C1
:0B1C8300187407F09000157401F022A7
:0D1ED500900015E070047F0180027F002264
:101C8E00E4FC7B007A00793B121BA6EF601A9000F1
:101C9E003AE0900039F0A3E53BF0900039E0B46FE4
:0A1CAE00E1A3E0B46BDC7C01ECFF65
:011CB8002209
:10057D00E4F53C7B007A00793B121BA6EF70030279
:10058D0006E47F01EFC3940974809480501B744E70
:10059D002FF582E43400F583E0FE744D2FF582E4EF
:1005AD003400F583EEF00F80DB900056E53BF0E470
:1005BD00FFEFFD7C00C39409748094805017EF9079
:1005CD001E4C93FE744E2FF582E43400F583E06EDD
:1005DD0070030F80DCED64094C7007FDFC7F0A127F
:1005ED001C08900000E014604C1470030206921475
:1005FD0070030206C5240360030206D5E53B649A29
:10060D006003020580F54FF55090000104F0E49071
:10061D000003F0E02405F582E43400F583749AF0CC
:10062D00900003E004F0900002749AF090000074C2
:10063D0001F0020580AF3B7E00C3EF9401748094FE
:10064D0080400AD3EF940474809480400CE49000B1
:10065D0001F0900000F0020580900004E53BF09061
:10066D000003E02405F582E43400F583E53BF090CA
:10067D000003E004F0900002E0253BF090000074D0
:10068D0002F0020580900003E02405F582E43400B9
:10069D00F583E53BF0900003E004F0A3E014F09047
:1006AD000002E0253BF0900004E06003020580901D
:1006BD0000007403F0020580900002E0653B7005B8
:1006CD00753C018003753C02E4900001F090000040
:1006DD00F0020580020580E53C701D900001E0648C
:1006ED00017015C3E55094E8E54F9403400AE4907A
:0A06FD000000F0A3F0753C03AF3CD1
:0107070022CF
:1003E90090003BE01470030204CF14700302055619
:1003F9001470030205662403600302057690005811
:10040900E014601A14603414606524FE7003020459
:10041900AB2405600302057CE4F54DF54E22C3E5E6
:100429004E94E8E54D9403500302057C121E16E430
:10043900F54DF54E9000587402F022121C8EEF64AF
:1004490001700F12170FE4F54DF54E900058740323
:10045900F022C3E54E94E8E54D9403500302057C70
:10046900E4F54DF54E121B419000587405F0221227
:100479001C8EEF6401700EF54DF54E121B41900074
:10048900587405F022C3E54E94E8E54D94035003F2
:1004990002057C121B41E4F54DF54E900058740598
:1004A900F022121C8EEF6401700690003B04F022CA
:1004B900C3E54E94E8E54D9403500302057C900092
:1004C9003B7401F0222290008BE06022900015E03D
:1004D900600302057C900089E0248CF582E43400F5
:1004E900F583E0FF121CB990003B7402F0229000E2
:1004F90092E06047900015E07079900090E0FE75F9
:10050900F003A42493F582E43400F583E0FFEE754B
:10051900F003A42494F582E43400F583E0FD90000F
:1005290090E075F003A42495F582E43400F583E0A6
:10053900FB121C6390003B7403F02212057DEF64EB
:100549000170307B017A0079071210F322121ED54F
:10055900EF6020121D0390003B7401F022121ED59A
:10056900EF6010121CDE90003B7401F02290003BFA
:040579007401F022F7
:061F6A00E4F508F5092270
:061C08008F3FEDFBECFA3A
:101C0E00E5082509FF7E007C007D0A1200F2EDFF3B
:101C1E0075F003A4240AF8A63FEF75F003A4240B75
:081C2E00F8EAF608EBF60509DF
:011C3600228B
:1018D200E4FFE509D3940074809480403BE50875E9
:1018E200F003A4240AF8E61200ACE50875F003A49C
:1018F200240BF8E6FF08E6AB3EAA3FA940CF8FF0E3
:101902001201CCE5082401FFE433FE7C007D0A12BB
:0819120000F28D0815097F01A8
:01191A0022AA
:1008FA00E5371470030209BF24F870030209D11402
:10090A0070030209D824FD700302099E146076144C
:10091A0070030209AC14604E240860030209E0E582
:10092A0033F52DAF2D121F5EAF2D1216ABE52D64D8
:10093A0001700C7539017D107F32FE12105D22E5BF
:10094A002D60030209E0121D4A753401E4F5357F72
:10095A00021216AB7F10121AD27D117F327E00125C
:10096A00105D75380522E53964017007F539121FE3
:10097A002280087539017F071216AB7D107F327EFF
:10098A000012105D22E5286401704BE533540FFF15
:10099A00121B7422E5286401703CAF33AE32121A7E
:1009AA005F22AB2DAD2FAF2C1217727D0F7F647EA5
:1009BA000012105D22C28F121D4A121F19121DC881
:1009CA00121F2275380622752801121F0522E4F526
:0709DA0028AF2C121E56226B
:10117F00E53724FB606024FD605424087079E4F5A2
:10118F0028753A01F530F52F752D07D28F121F579D
:10119F00E4F52CAF2C120EF6AF2C121E56E4FF12F4
:1011AF001960AF2D1216ABE52D6401700B75390167
:1011BF007D107F32FE12105D7D0F7FE87E031210CF
:1011CF005D7D197F707E1712105D75380222753A9A
:1011DF0001E533F52D22752A01852D29AD29AF2D76
:1011EF001215687F01121F64121DC87D137F647E64
:0811FF000012105D7538032297
:100FB400E53724FB607C24FA603324F66062241550
:100FC400600302105C753A01E528600302105CF5C9
:100FD4002CAF2C120EF6AF2C121E56E4FF12196021
:100FE4007D0F7F647E0012105D75380222753A0110
:100FF400E5286064E533640145327005752C03808F
:1010040003E4F52CAF2C120EF6AF2C121E56E4FF9F
:101014001219607D0F7F647E0012105D7538022204
:10102400753A01121F19121DC8121F22C28FE4F54E
:101034003822752A017F10121AD2852D29AD29AFC5
:101044002D1215687F01121F64121DC87D137F6461
:091054007E0012105D75380322C4
:10070800E53724FC700302079114605024FE70033F
:1007180002079D24FB70030207C124F3700302073C
:10072800DA24196003020805753A01E52860030216
:100738000805052CC3E52C9404748094804012129B
:100748001D4A121F19121F22121DC8C28FE4F53844
:1007580022AF2C121E56AF2C120E3622752A011209
:100768001D4A121F197F10121AD2852D29AD29AFE3
:100778002D1215687F01121F64121DC87D137F6436
:100788007E0012105D75380322753A0185332FAF4C
:100798002F12196022753A01121D4AE4F52B752EA5
:1007A80001121F19121F227F041219607D177F3250
:1007B8007E0012105D75380722753A01E52864013C
:1007C800703B121D4A7D157FE87E0312105D753857
:1007D8000122753A010530C3E530940A748094808B
:1007E8004012121D4A121F19121F22121DC8C28F51
:0E07F800E4F538227D197F707E1712105D2205
:1009E100E537147003020AC4147003020AAC24FA36
:1009F1007003020A7924F56023240D6003020AC7FB
:100A0100752A01121F19E4FF121F64121F22121D01
:100A1100C87F13121AD2C28FE4F53822753A01AF9A
:100A21002D7E00C3EF940774809480502F0529E533
:100A3100299407748094804012D3EF9402748094B7
:100A41008050057529028003852D29AD29AF2D120E
:100A510015687D137F647E0012105D227F13121AC8
:100A6100D2E4FF121F64E4FF1219607D147FF47E4B
:100A71000112105D75380422753A01E533F52DAF89
:100A81002D121F5EE52D6407703C7F13121AD2E40C
:100A9100FF121F64E4FF1219607F071216AB7D1469
:100AA1007FF47E0112105D75380422753A01E4F578
:100AB10036F531121E8F7D1A7F2C7E0112105D7565
:070AC100380822753A0122FA
:10131000E537601C14607214602D24FC604F24FEBD
:10132000603E24F47066753A01121F22121DC82215
:10133000753A01E4FF121960AF2D1216AB7D147FD0
:10134000F47E0112105D22753A01E4F53675310123
:10135000121E8F7D1A7F2C7E0112105D75380822B7
:10136000753A01E533F52DAF2D121F5E22752A0166
:10137000121F19E4FF121F64121F22121DC87F13CF
:0D138000121AD2C28FE4F53822753A01220C
:10120700E53724FB604F14607824F57077753A0151
:10121700E5346401702DF534121F220535C3E53519
:101227009405748094804011E4FF121F64121F22FA
:10123700121DC8C28FE4F538227D117F197E001276
:10124700105D227534017F021216AB7D117F197E66
:101257000012105D22752A017F12121AD27F111215
:101267001AD2852D29AD29AF2D1215687F01121FBE
:1012770064121DC87D137F647E0012105D753803EC
:0512870022E4F52A221B
:10148000E53724FB606614606724EF7066E52E6420
:1014900001700BF52EFFFE121F3B052B800A752EE7
:1014A000017F1E7E4E121F3BC3E52B940574809472
:1014B00080402FE52A601F852D29AD29AF2D1215FB
:1014C000687F01121F64121DC87D137F327E0012D7
:1014D000105D75380322121DC8121F22C28FE4F559
:1014E00038227D177F327E0012105D22752A01227C
:0414F000E4F52A22D3
:1014F400E53724E6603F241A7069753A010536C35E
:10150400E53694027480948040597F1A121AD27579
:101514002C02AF2C120EF6121E8F7F1E7E4E121F4F
:101524003B7F1E7E4E121F427D197F707E17121064
:101534005D75380922753A01E53164017007121F9F
:101544002275380422852D29AD29AF2D1215687F07
:1015540001121F64121DC87D137F647E0012105D8A
:0415640075380322B1
:10128C00E53714606D24FD606524FC605D24F0601E
:10129C003314706F753A010530C3E530940A7480CD
:1012AC0094804016E4F530121D4A121DC8121F1905
:1012BC007D187F707E1712105D227D197F707E174E
:1012CC0012105D22753A01752C02AF2C120EF6121B
:1012DC001E8F7F1E7E4E121F3B7F1E7E4E121F42A4
:1012EC007D197F707E1712105D22753A0122753AB6
:1012FC000122C28F121D4A121F19121DC8121F2261
:04130C007538062208
:101A2000E53724FB603114603224037031753A01CC
:101A3000E52A601F852D29AD29AF2D1215687F017C
:101A4000121F64121DC87D137F647E0012105D7525
:0F1A5000380322E4F53822752A0122E4F52A2210
:10138D00753E00753F007540327B007A007937124B
:10139D0018D2EF6066E4F53AE538B40A005055907E
:1013AD0013B3F82828730213D10213D60213DB02EC
:1013BD0013E00213E50213EA0213EF0213F4021312
:1013CD00F90213FE12117F802B120FB48026120723
:1013DD000880211209E1801C1213108017121207C8
:1013ED008012121A20800D12148080081214F480BD
:0C13FD000312128CE53A70031208FA2269
:04005600E4F5382273
:100AC800C3E5439405748094805003020BA6E4F5B3
:100AD80043E54414601B1460271460452403600335
:100AE800020BA6E4F545F546F5477548017544013E
:100AF80022E58854016003020BA6F54575440222DD
:100B0800E588540170170545C3E545940874809439
:100B1800805003020BA6E4F54575440322E4F5442E
:100B280022E58854017047F545D3E5489400E54728
:100B3800940040080548E54870020547D3E5489405
:100B480090E5479401400DE4F547F548FDFC7F0228
:100B5800121C0822D3E548942CE5479401403FE550
:100B680046703B754601FDFC7F01121C08220545B5
:100B7800C3E5459408748094804023E4F545E54630
:100B880064016006E5484547700AE4FDFC7F0312EE
:0F0B98001C088007E4FDFCFF121C08E4F5442252
:1010F3008B3B8A3C893D12006614601C14603314D8
:10110300603E14605D240470727F80121B0A7D01AF
:101113007C007F09121C08227F81121B0AAB3BAAA9
:101123003CA93D90000112007FFD7C007F0B121C47
:1011330008227F82121B0AE4FDFC7F0C121C08228A
:101143007F83121B0AAB3BAA3CA93D90000112000E
:101153007FFE90000212007FFDEEFCED7F0D121C5E
:1011630008227F84121B0AAB3BAA3CA93D900001D5
:0C11730012007FFD7C007F0E121C082281
:101D2800E4FFEFC3940C748094805015EF25E025F0
:101D3800E0245BF582E43400F583E4F0A3F00F803F
:011D4800E1B9
:011D49002277
:04105D008E3B8F3CFB
:10106100754000754100754200753D01753E007582
:101071003F59E4FFEFC3940C74809480505BAB3D07
:10108100AA3EA93F90000212014745F07010E542C7
:101091004541454070358B408A418942802DAB3DA9
:1010A100AA3EA93F90000112007F6D701EE54245E6
:1010B100414540600B900002E4F5F01201EB80190C
:1010C100853D40853E41853F42800E7404253FF5B4
:1010D1003FE4353EF53E0F809BAB40AA41A94290CB
:1010E1000002E53B853CF01201EB900001ED12009E
:0110F100BE40
:0110F20022DB
:101AD2007B017A007959E4FEEEC3940C7480948001
:101AE200502590000212014745F06011900001124A
:101AF200007F6F7008900002F5F01201EB74042968
:071B0200F9E43AFA0E80D16C
:011B090022B9
:10140900C3E557940A74809480406BE4F557753BA3
:1014190001753C00753D59F53EC3E53E940C748059
:1014290094805052AB3BAA3CA93D9000021201475F
:10143900FFAEF04E6031D3EF9401EE940050189056
:101449000002E4F5F01201EB90000112007FFFE4C5
:10145900FDFC121C088010AB3BAA3CA93D90000280
:1014690074FFF5F012017F7404253DF53DE4353C28
:06147900F53C053E80A3D6
:01147F00224A
:101DFC00E4900092F0900091F0900090F090008BA5
:0A1E0C00F090008AF0900089F022A7
:10177200900092E0C3940474809480504CE004F092
:10178200900091E0FE75F003A42493F582E4340006
:10179200F583EFF0EE75F003A42494F582E43400AF
:1017A200F583EDF0EE75F003A42495F582E43400A0
:1017B200F583EBF0900091E004F0E0C394047480B0
:0C17C20094804002E4F07F01227F0022AE
:101CDE00900092E0601514F0900090E004F0E0C3E4
:101CEE00940474809480400CE4F022E4900091F00F
:051CFE00900090F022AF
:101B0A0090008BE0C39404748094805027E004F022
:101B1A0090008AE0248CF582E43400F583EFF0909B
:101B2A00008AE004F0E0C39404748094804002E4E4
:071B3A00F07F01227F002271
:101D030090008BE0601514F0900089E004F0E0C3CC
:101D1300940474809480400CE4F022E490008AF0F0
:051D2300900089F02290
:0D1EE200E4785CF6785FF608F6785BF6228F
:081F2B007859E6FE08E6FF22EA
:081F3300785DE6FE08E6FF22DE
:100C8400785BE614602314607C24026003020D6028
:100C9400E59C54F04406F59C439C40E4785CF6786B
:100CA4005FF608F6785B760122E59C20E403020DEA
:100CB40060AF9FEF7D00FCAF9EEFCDEDCDE4CCCCDB
:100CC4007860ED26F618EC36F6785C06E6C39410E8
:100CD40074809480402B795FE7C4F854F0C868FFAF
:100CE40009E7C4540F487859CFF608EFF6E4785F63
:100CF400F608F6785CF6E59C54F04402F59C187608
:100D040002439C4022E59C30E452AF9FEF7D00FCFF
:100D1400AF9EEFCDEDCDE4CCCC7860ED26F618ECAB
:100D240036F6785C06E6C3941074809480402A7981
:100D34005FE7C4F854F0C868FF09E7C4540F487863
:100D44005DCFF608EFF6E408F608F6785CF6E59C65
:0C0D540054F04406F59C187601439C40C6
:010D60002270
:0F1E9E009000B1E0640470047F0180027F002295
:10080600C3E55894327480948050030208F9055861
:100816009000B1E01460311460701470030208A3F4
:100826001470030208E6240460030208F9E4900049
:10083600B3F0A3F0E588540270079000B17403F09A
:10084600229000B17401F022E5885402700D9000E8
:10085600B3F0A3F09000B17403F0229000B4E0046A
:10086600F070069000B3E004F0C39000B4E0941E6C
:100876009000B3E09400407BE4F0A3F0FDFC7F061B
:10088600121C089000B17402F022E58854027063CD
:100896009000B3F0A3F09000B17403F022E5885401
:1008A6000270309000B4E004F070069000B3E004EB
:1008B600F0C39000B4E0941E9000B3E0940040337F
:1008C600E4F0A3F07D01FC7F05121C089000B174D2
:1008D60004F022E49000B3F0A3F09000B104F022FB
:1008E600E58854026402700B9000B3F0A3F0900008
:0408F600B104F02237
:0E1EAD00E4F5589000B3F0A3F09000B1F022DD
:10006600BB010689828A83E0225002E722BBFE0298
:09007600E32289828A83E49322CB
:10007F00BB010CE58229F582E5833AF583E0225036
:10008F0006E92582F8E622BBFE06E92582F8E22280
:0D009F00E58229F582E5833AF583E493229A
:1000AC00BB010689828A83F0225002F722BBFE0133
:0200BC00F3222D
:1000BE00F8BB010DE58229F582E5833AF583E8F078
:1000CE00225006E92582C8F622BBFE05E92582C824
:0200DE00F2220C
:1000E000EF8DF0A4A8F0CF8CF0A428CE8DF0A42E34
:0200F000FE22EE
:1000F200BC000BBE0029EF8DF084FFADF022E4CCF2
:10010200F875F008EF2FFFEE33FEEC33FCEE9DECBA
:10011200984005FCEE9DFE0FD5F0E9E4CEFD22ED00
:10012200F8F5F0EE8420D21CFEADF075F008EF2F4A
:10013200FFED33FD4007985006D5F0F222C398FD3B
:050142000FD5F0EA22D8
:10014700BB0110E58229F582E5833AF583E0F5F0F6
:10015700A3E0225009E92582F886F008E622BBFED3
:100167000AE92582F8E2F5F008E222E5832AF58319
:08017700E993F5F0A3E99322DE
:10017F00BB010DC58229C582C5833AC5830202180A
:10018F005011C58229F808E5F026F618F5F0E5823A
:10019F0036F622BBFE11C58229F808E225F0F5F0EC
:1001AF00F218E23582F222F8E58229F582E5832AF8
:0D01BF00F58374019325F0F5F0E4933822E8
:1001CC00BB010A89828A83F0E5F0A3F0225006F77E
:0F01DC0009A7F01922BBFE06F3E5F009F319227B
:1001EB00F8BB0111E58229F582E5833AF583E8F046
:1001FB00E5F0A3F0225009E92582C8F608A6F02203
:0D020B00BBFE09E92582C8F2E5F008F222E9
:10021800C5F0F8A3E028F0C5F0F8E5821582700271
:060228001583E038F0220E
:00000001FF
